:03000000020006F5
:03005F0002000399
:0300030002006296
:2000620075805575905575A05575B055C2B0D2B17E007F007C007D0075905575A0AA7A0078
:200082007B00C3EA9464EB6480948050070ABA00F10B80EEEE4F60067E007F008007EE4F72
:1E00A20070037E01FFEC4D60067C007D008007EC4D70037C01FD7590AA75A05580BAB7
:06003500E478FFF6D8FD9F
:200013007900E94400601B7A009000C4780175A000E493F2A308B8000205A0D9F4DAF275CF
:02003300A0FF2C
:20003B007800E84400600A790175A000E4F309D8FC7800E84400600C7900900001E4F0A3C3
:04005B00D8FCD9FAFA
:0D0006007581071200C0E58260030200034F
:0400C0007582002223
:00000001FF
