:03000000020006F5
:03005F0002000399
:0300030002006296
:200062007590FFC2B3C2B4D280D281D282C283208407D2B3D2B47590B0208507C2B3D2B43F
:200082007590A4208607D2B3C2B47590F9D280D281C282D2832084037590822085037590F6
:2000A200122086037590BBD280C281D282D28320840375909020850375908020860375906E
:1D00C200F8C280D281D282D2832084037590882085037590C020868F75907F808A87
:06003500E478FFF6D8FD9F
:200013007900E94400601B7A009000E3780175A000E493F2A308B8000205A0D9F4DAF275B0
:02003300A0FF2C
:20003B007800E84400600A790175A000E4F309D8FC7800E84400600C7900900001E4F0A3C3
:04005B00D8FCD9FAFA
:0D0006007581071200DFE582600302000330
:0400DF007582002204
:00000001FF
